:100000000C9462000C948A000C948A000C948A0070
:100010000C948A000C948A000C948A000C948A0038
:100020000C948A000C948A000C948A000C943E0272
:100030000C948A000C948A000C948A000C948A0018
:100040000C94F4010C948A000C948A000C948A009D
:100050000C948A000C948A000C948A000C948A00F8
:100060000C948A000C948A000000000024002700F1
:100070002A0000000000250028002B0000000000DE
:1000800023002600290004040404040404040202DA
:100090000202020203030303030301020408102007
:1000A0004080010204081020010204081020000012
:1000B0000008000201000003040700000000000027
:1000C00000000D0511241FBECFEFD8E0DEBFCDBF6D
:1000D00011E0A0E0B1E0EEE3FBE002C005900D927C
:1000E000A030B107D9F721E0A0E0B1E001C01D9236
:1000F000A434B207E1F710E0C2E6D0E004C02197D3
:10010000FE010E949705C136D107C9F70E943F033F
:100110000C949D050C9400008F929F92AF92BF9219
:10012000FF920F931F93CF93DF93F09041012BE049
:100130002F1508F44CC02091430108E512E0021B82
:10014000110927FD1395000F111F000F111F20919A
:100150004201C8E8D0E0C21BD10927FDD395CC0FDE
:10016000DD1FCC0FDD1F4E010D2E000CAA08BB08B1
:100170009801012E000C440B550B281939094A0926
:100180005B09DC010E94520524EB30E040E050E0C6
:100190000E942805820E931EA41EB51E8C169D0675
:1001A0002CF0E801801691060CF4E4012297CC0FA4
:1001B000DD1F2FB7F8948F2D90E0FC01EE0FFF1F8D
:1001C000E80FF91FE35EFE4FD283C1832FBFDF919B
:1001D000CF911F910F91FF90BF90AF909F908F9004
:1001E0000895833081F028F4813099F08230A9F0AD
:1001F00008958730A9F08830C9F08430B1F4809137
:1002000080008F7D03C0809180008F778093800075
:10021000089584B58F7784BD089584B58F7DFBCF15
:100220008091B0008F778093B00008958091B000E6
:100230008F7DF9CFCF93DF93E1EBF0E08491EDE98F
:10024000F0E0D491E9E8F0E0C491CC23A1F0811171
:100250000E94F100EC2FF0E0EE0FFF1FE458FF4F7B
:10026000A591B491EC91ED2381E090E009F480E058
:10027000DF91CF91089580E090E0FACF1F93CF9364
:10028000DF93282F30E0F901E255FF4F8491F90107
:10029000E656FF4FD491F901EA57FF4FC491CC23A2
:1002A000A9F0162F81110E94F100EC2FF0E0EE0F63
:1002B000FF1FEE58FF4FA591B4918FB7F894EC91C2
:1002C000111108C0D095DE23DC938FBFDF91CF9151
:1002D0001F910895DE2BF8CFCF93DF9390E0FC01C0
:1002E000E656FF4F24918A579F4FFC018491882343
:1002F000D1F090E0880F991FFC01E859FF4FA591BC
:10030000B491FC01EE58FF4FC591D49161110EC01C
:100310009FB7F8948C91E22FE0958E238C932881DF
:10032000E223E8839FBFDF91CF9108958FB7F894C0
:10033000EC91E22BEC938FBFF6CF3FB7F89480910E
:10034000070190910801A0910901B0910A0126B519
:10035000A89B05C02F3F19F00196A11DB11D3FBFFD
:10036000BA2FA92F982F8827BC01CD01620F711DCC
:10037000811D911D42E0660F771F881F991F4A95C6
:10038000D1F708958F929F92AF92BF92CF92DF9252
:10039000EF92FF924B015C010E949D016B017C0179
:1003A0000E949D016C197D098E099F09683E73406A
:1003B00081059105A8F321E0821A9108A108B108EE
:1003C00088EEC80E83E0D81EE11CF11C8114910454
:1003D000A104B10429F7FF90EF90DF90CF90BF9078
:1003E000AF909F908F9008951F920F920FB60F922B
:1003F00011242F933F938F939F93AF93BF9380913B
:10040000030190910401A0910501B0910601309182
:10041000020123E0230F2D3758F50196A11DB11DD0
:10042000209302018093030190930401A09305019E
:10043000B09306018091070190910801A0910901F4
:10044000B0910A010196A11DB11D809307019093FF
:100450000801A0930901B0930A01BF91AF919F9148
:100460008F913F912F910F900FBE0F901F90189575
:1004700026E8230F0296A11DB11DD2CF1F920F9225
:100480000FB60F9211242F933F934F935F936F9367
:100490007F938F939F93AF93BF93CF93DF93EF930C
:1004A000FF9380910101C0910001D0E087FF24C03B
:1004B0001092850010928400809101018F5F8093DB
:1004C000010180910101082E000C990B8C179D07EA
:1004D00024F4809101018C30C4F1809184009091CA
:1004E0008500049680349C4908F47AC08091840089
:1004F00090918500049676C080910101082E000C31
:10050000990B8C179D07C4F6E09101018E2FEE0F19
:10051000990BFC01EE0FFF1FE80FF91FE35EFE4F82
:10052000808186FFC9CFE09101018E2FEE0F990BDC
:10053000FC01EE0FFF1FE80FF91FE35EFE4F808105
:1005400060E08F730E943E01B7CF2091840030910C
:100550008500E09101018E2FEE0F990BFC01EE0F4B
:10056000FF1FE80FF91FE35EFE4F81819281820F2A
:10057000931F9093890080938800E09101018E2F52
:10058000EE0F990BFC01EE0FFF1FE80FF91FE35E62
:10059000FE4F808186FF11C0E09101018E2FEE0F8A
:1005A000990BFC01EE0FFF1FE80FF91FE35EFE4FF2
:1005B000808161E08F730E943E01FF91EF91DF9196
:1005C000CF91BF91AF919F918F917F916F915F91EB
:1005D0004F913F912F910F900FBE0F901F90189544
:1005E00080E49CE990938900809388008FEF80934A
:1005F0000101E3CFCF92DF92EF92FF920F931F930F
:10060000E82FF92F05C0015011092109310961F1C5
:10061000908196239417B9F305C00150110921095F
:10062000310911F1908196239413F7CFC12CD12C6D
:10063000E12CF12C0AC08FEFC81AD80AE80AF80A90
:100640000C151D052E053F0579F080818623841742
:1006500091F36C2D7D2D8E2D9F2D1F910F91FF906D
:10066000EF90DF90CF90089560E070E080E090E040
:100670001F910F91FF90EF90DF90CF9008957894A5
:1006800084B5826084BD84B5816084BD85B5826097
:1006900085BD85B5816085BD80916E008160809348
:1006A0006E001092810080918100826080938100B1
:1006B00080918100816080938100809180008160C1
:1006C000809380008091B10084608093B10080911C
:1006D000B00081608093B00080917A008460809344
:1006E0007A0080917A00826080937A0080917A000B
:1006F000816080937A0080917A00806880937A008C
:100700001092C100809141018C3008F051C061E02D
:1007100087E00E946C0180914101282F30E0F901AF
:10072000EE0FFF1FE20FF31FE35EFE4F9081907C00
:100730009760908310924201109243012CE0622F47
:100740000E948B05829FB001112430E020E0AB01B4
:10075000420F531FFA01EE0FFF1FE40FF51FE35E78
:10076000FE4F908196FD16C02F5F3F4F2C30310514
:1007700071F781110FC01092800082E08093810098
:100780001092850010928400B19A80916F0082606F
:1007900080936F00E09141018E2F90E0FC01EE0FFD
:1007A000FF1FE80FF91FE35EFE4F808180648083A6
:1007B00060E084E00E946C0161E08CE00E946C01CA
:1007C00060E08BE00E946C018AE590E00E948C0062
:1007D00068EE73E080E090E00E94C20183E090E068
:1007E0000E948C0090E3892E912CA12CB12C23E047
:1007F000422E512C612C712C30E0232E30E0332E10
:100800000E941A01EC010197A1F480911B019091C3
:100810001C01892B71F48AE590E00E948C0068EB42
:100820007BE080E090E00E94C201D0931C01C09365
:100830001B010E941A01892BA1F480911B01909148
:100840001C01019771F483E090E00E948C0068EE37
:1008500073E080E090E00E94C20110921C011092AF
:100860001B0180911B0190911C01892B09F080C014
:10087000CBE0D1E060E08CE00E943E018FE090E0B0
:100880000197F1F761E08CE00E943E0187E390E080
:100890000197F1F760E08CE00E943E0160E08BE0A0
:1008A0000E946C01E5EAF0E06491E1E9F0E08491F6
:1008B000E82FF0E0EE0FFF1FE458FF4F8591949171
:1008C00000E412E42FE030E0462F0E94FA026115A6
:1008D00071058105910529F06F5F7F4F8F4F9F4F05
:1008E0009F70A50194010E94280520931701309361
:1008F00018014093190150931A0129933993499390
:10090000599362E370E080E090E00E94C201F1E060
:10091000C731DF0709F0AECF60910B0170910C0178
:1009200080910D0190910E0100910F011091100125
:100930002091110130911201600F711F821F931FCE
:1009400000911301109114012091150130911601AD
:10095000600F711F821F931FA30192010E9428053F
:1009600020931701309318014093190150931A01F5
:10097000C0901701D0901801E0901901F0901A0171
:10098000D701C6010B97A109B1094397A105B1058C
:10099000D0F480911B0190911C01892BA1F48AE570
:1009A00090E00E948C0068EE73E080E090E00E948E
:1009B000C20183E090E00E948C0068EE73E080E06A
:1009C00090E00E94C201D701C6014F97A109B10969
:1009D0004D97A105B105D0F480911B0190911C01A8
:1009E000892BA1F48AE590E00E948C0068EB7BE003
:1009F00080E090E00E94C20183E090E00E948C00C1
:100A000068EE73E080E090E00E94C201211431049E
:100A100009F4F6CE0E940000F3CE809100018C30E4
:100A200098F491E0980F909300018093410190E039
:100A3000FC01EE0FFF1FE80FF91FE35EFE4F88EB8E
:100A40009BE09283818308958FEF80934101089505
:100A5000052E97FB1EF400940E943F0557FD07D01A
:100A60000E945A0507FC03D04EF40C943F055095A4
:100A70004095309521953F4F4F4F5F4F089590958A
:100A80008095709561957F4F8F4F9F4F08950E947D
:100A90007C05A59F900DB49F900DA49F800D911D86
:100AA00011240895B7FF0C9447050E944705821B47
:100AB000930B0895A1E21A2EAA1BBB1BFD010DC0CA
:100AC000AA1FBB1FEE1FFF1FA217B307E407F507FE
:100AD00020F0A21BB30BE40BF50B661F771F881FDA
:100AE000991F1A9469F760957095809590959B0170
:100AF000AC01BD01CF010895A29FB001B39FC00119
:100B0000A39F700D811D1124911DB29F700D811D39
:100B10001124911D0895991B79E004C0991F96171F
:100B200008F0961B881F7A95C9F780950895EE0FF7
:0E0B3000FF1F0590F491E02D0994F894FFCF7B
:00000001FF
